{
  "contractName": "Voting",
  "abi": [
    {
      "anonymous": false,
      "inputs": [
        {
          "indexed": true,
          "internalType": "address",
          "name": "previousOwner",
          "type": "address"
        },
        {
          "indexed": true,
          "internalType": "address",
          "name": "newOwner",
          "type": "address"
        }
      ],
      "name": "OwnershipTransferred",
      "type": "event"
    },
    {
      "anonymous": false,
      "inputs": [
        {
          "indexed": false,
          "internalType": "uint256",
          "name": "proposalId",
          "type": "uint256"
        }
      ],
      "name": "ProposalRegistered",
      "type": "event"
    },
    {
      "anonymous": false,
      "inputs": [
        {
          "indexed": false,
          "internalType": "address",
          "name": "voter",
          "type": "address"
        },
        {
          "indexed": false,
          "internalType": "uint256",
          "name": "proposalId",
          "type": "uint256"
        }
      ],
      "name": "Voted",
      "type": "event"
    },
    {
      "anonymous": false,
      "inputs": [
        {
          "indexed": false,
          "internalType": "address",
          "name": "voterAddress",
          "type": "address"
        }
      ],
      "name": "VoterRegistered",
      "type": "event"
    },
    {
      "anonymous": false,
      "inputs": [
        {
          "indexed": false,
          "internalType": "enum Voting.WorkflowStatus",
          "name": "previousStatus",
          "type": "uint8"
        },
        {
          "indexed": false,
          "internalType": "enum Voting.WorkflowStatus",
          "name": "newStatus",
          "type": "uint8"
        }
      ],
      "name": "WorkflowStatusChange",
      "type": "event"
    },
    {
      "inputs": [],
      "name": "owner",
      "outputs": [
        {
          "internalType": "address",
          "name": "",
          "type": "address"
        }
      ],
      "stateMutability": "view",
      "type": "function",
      "constant": true
    },
    {
      "inputs": [],
      "name": "renounceOwnership",
      "outputs": [],
      "stateMutability": "nonpayable",
      "type": "function"
    },
    {
      "inputs": [
        {
          "internalType": "address",
          "name": "newOwner",
          "type": "address"
        }
      ],
      "name": "transferOwnership",
      "outputs": [],
      "stateMutability": "nonpayable",
      "type": "function"
    },
    {
      "inputs": [],
      "name": "winningProposalID",
      "outputs": [
        {
          "internalType": "uint256",
          "name": "",
          "type": "uint256"
        }
      ],
      "stateMutability": "view",
      "type": "function",
      "constant": true
    },
    {
      "inputs": [],
      "name": "workflowStatus",
      "outputs": [
        {
          "internalType": "enum Voting.WorkflowStatus",
          "name": "",
          "type": "uint8"
        }
      ],
      "stateMutability": "view",
      "type": "function",
      "constant": true
    },
    {
      "inputs": [
        {
          "internalType": "address",
          "name": "_addr",
          "type": "address"
        }
      ],
      "name": "getVoter",
      "outputs": [
        {
          "components": [
            {
              "internalType": "bool",
              "name": "isRegistered",
              "type": "bool"
            },
            {
              "internalType": "bool",
              "name": "hasVoted",
              "type": "bool"
            },
            {
              "internalType": "uint256",
              "name": "votedProposalId",
              "type": "uint256"
            }
          ],
          "internalType": "struct Voting.Voter",
          "name": "",
          "type": "tuple"
        }
      ],
      "stateMutability": "view",
      "type": "function",
      "constant": true
    },
    {
      "inputs": [
        {
          "internalType": "uint256",
          "name": "_id",
          "type": "uint256"
        }
      ],
      "name": "getOneProposal",
      "outputs": [
        {
          "components": [
            {
              "internalType": "string",
              "name": "description",
              "type": "string"
            },
            {
              "internalType": "uint256",
              "name": "voteCount",
              "type": "uint256"
            }
          ],
          "internalType": "struct Voting.Proposal",
          "name": "",
          "type": "tuple"
        }
      ],
      "stateMutability": "view",
      "type": "function",
      "constant": true
    },
    {
      "inputs": [],
      "name": "getProposalsCount",
      "outputs": [
        {
          "internalType": "uint256",
          "name": "",
          "type": "uint256"
        }
      ],
      "stateMutability": "view",
      "type": "function",
      "constant": true
    },
    {
      "inputs": [
        {
          "internalType": "address",
          "name": "_addr",
          "type": "address"
        }
      ],
      "name": "addVoter",
      "outputs": [],
      "stateMutability": "nonpayable",
      "type": "function"
    },
    {
      "inputs": [
        {
          "internalType": "string",
          "name": "_desc",
          "type": "string"
        }
      ],
      "name": "addProposal",
      "outputs": [],
      "stateMutability": "nonpayable",
      "type": "function"
    },
    {
      "inputs": [
        {
          "internalType": "uint256",
          "name": "_id",
          "type": "uint256"
        }
      ],
      "name": "setVote",
      "outputs": [],
      "stateMutability": "nonpayable",
      "type": "function"
    },
    {
      "inputs": [],
      "name": "getWinningProposalId",
      "outputs": [
        {
          "internalType": "uint256",
          "name": "",
          "type": "uint256"
        }
      ],
      "stateMutability": "view",
      "type": "function",
      "constant": true
    },
    {
      "inputs": [],
      "name": "startProposalsRegistering",
      "outputs": [],
      "stateMutability": "nonpayable",
      "type": "function"
    },
    {
      "inputs": [],
      "name": "endProposalsRegistering",
      "outputs": [],
      "stateMutability": "nonpayable",
      "type": "function"
    },
    {
      "inputs": [],
      "name": "startVotingSession",
      "outputs": [],
      "stateMutability": "nonpayable",
      "type": "function"
    },
    {
      "inputs": [],
      "name": "endVotingSession",
      "outputs": [],
      "stateMutability": "nonpayable",
      "type": "function"
    }
  ],
  "bytecode": "0x608060405234801561000f575f80fd5b5061002c61002161003160201b60201c565b61003860201b60201c565b6100f9565b5f33905090565b5f805f9054906101000a900473ffffffffffffffffffffffffffffffffffffffff169050815f806101000a81548173ffffffffffffffffffffffffffffffffffffffff021916908373ffffffffffffffffffffffffffffffffffffffff1602179055508173ffffffffffffffffffffffffffffffffffffffff168173ffffffffffffffffffffffffffffffffffffffff167f8be0079c531659141344cd1fd0a4f28419497f9722a3daafe3b4186f6b6457e060405160405180910390a35050565b6121d880620001075f395ff3fe608060405234801561000f575f80fd5b50600436106100fe575f3560e01c8063bdc0143111610095578063e81e977b11610064578063e81e977b1461023a578063ee74c67814610258578063f2fde38b14610262578063f4ab9adf1461027e576100fe565b8063bdc01431146101d8578063c7038a4e146101f6578063c88af42f14610200578063d4f50f981461020a576100fe565b806398e527d3116100d157806398e527d314610162578063a1edffa214610180578063a2788cce1461019e578063a7bfab16146101ce576100fe565b8063230796ae146101025780632fdae3c51461011e578063715018a61461013a5780638da5cb5b14610144575b5f80fd5b61011c60048036038101906101179190611325565b61029a565b005b610138600480360381019061013391906113b1565b6105d7565b005b61014261084e565b005b61014c610861565b604051610159919061143b565b60405180910390f35b61016a610888565b6040516101779190611463565b60405180910390f35b610188610894565b60405161019591906114ef565b60405180910390f35b6101b860048036038101906101b39190611325565b6108a6565b6040516101c591906115db565b60405180910390f35b6101d6610a04565b005b6101e0610ae8565b6040516101ed9190611463565b60405180910390f35b6101fe610aee565b005b610208610c5f565b005b610224600480360381019061021f9190611625565b610d42565b60405161023191906116aa565b60405180910390f35b610242610e61565b60405161024f9190611463565b60405180910390f35b610260610e6a565b005b61027c60048036038101906102779190611625565b610f4e565b005b61029860048036038101906102939190611625565b610fd0565b005b60045f3373ffffffffffffffffffffffffffffffffffffffff1673ffffffffffffffffffffffffffffffffffffffff1681526020019081526020015f205f015f9054906101000a900460ff16610325576040517f08c379a000000000000000000000000000000000000000000000000000000000815260040161031c9061171d565b60405180910390fd5b600360058111156103395761033861147c565b5b60025f9054906101000a900460ff16600581111561035a5761035961147c565b5b1461039a576040517f08c379a0000000000000000000000000000000000000000000000000000000008152600401610391906117ab565b60405180910390fd5b60045f3373ffffffffffffffffffffffffffffffffffffffff1673ffffffffffffffffffffffffffffffffffffffff1681526020019081526020015f205f0160019054906101000a900460ff1615610427576040517f08c379a000000000000000000000000000000000000000000000000000000000815260040161041e90611813565b60405180910390fd5b600380549050811061046e576040517f08c379a00000000000000000000000000000000000000000000000000000000081526004016104659061187b565b60405180910390fd5b8060045f3373ffffffffffffffffffffffffffffffffffffffff1673ffffffffffffffffffffffffffffffffffffffff1681526020019081526020015f2060010181905550600160045f3373ffffffffffffffffffffffffffffffffffffffff1673ffffffffffffffffffffffffffffffffffffffff1681526020019081526020015f205f0160016101000a81548160ff0219169083151502179055506003818154811061051f5761051e611899565b5b905f5260205f2090600202016001015f81548092919061053e906118f3565b919050555060036001548154811061055957610558611899565b5b905f5260205f209060020201600101546003828154811061057d5761057c611899565b5b905f5260205f20906002020160010154111561059b57806001819055505b7f4d99b957a2bc29a30ebd96a7be8e68fe50a3c701db28a91436490b7d53870ca433826040516105cc92919061193a565b60405180910390a150565b60045f3373ffffffffffffffffffffffffffffffffffffffff1673ffffffffffffffffffffffffffffffffffffffff1681526020019081526020015f205f015f9054906101000a900460ff16610662576040517f08c379a00000000000000000000000000000000000000000000000000000000081526004016106599061171d565b60405180910390fd5b600160058111156106765761067561147c565b5b60025f9054906101000a900460ff1660058111156106975761069661147c565b5b146106d7576040517f08c379a00000000000000000000000000000000000000000000000000000000081526004016106ce906119ab565b60405180910390fd5b6040516020016106e6906119f6565b60405160208183030381529060405280519060200120828260405160200161070f929190611a3c565b6040516020818303038152906040528051906020012003610765576040517f08c379a000000000000000000000000000000000000000000000000000000000815260040161075c90611a9e565b60405180910390fd5b61076d6112af565b82828080601f0160208091040260200160405190810160405280939291908181526020018383808284375f81840152601f19601f82011690508083019250505050505050815f0181905250600381908060018154018082558091505060019003905f5260205f2090600202015f909190919091505f820151815f0190816107f49190611ce3565b506020820151816001015550507f92e393e9b54e2f801d3ea4beb0c5e71a21cc34a5d34b77d0fb8a3aa1650dc18f60016003805490506108349190611db2565b6040516108419190611463565b60405180910390a1505050565b610856611169565b61085f5f6111e7565b565b5f805f9054906101000a900473ffffffffffffffffffffffffffffffffffffffff16905090565b5f600380549050905090565b60025f9054906101000a900460ff1681565b6108ae6112af565b60045f3373ffffffffffffffffffffffffffffffffffffffff1673ffffffffffffffffffffffffffffffffffffffff1681526020019081526020015f205f015f9054906101000a900460ff16610939576040517f08c379a00000000000000000000000000000000000000000000000000000000081526004016109309061171d565b60405180910390fd5b6003828154811061094d5761094c611899565b5b905f5260205f2090600202016040518060400160405290815f8201805461097390611b16565b80601f016020809104026020016040519081016040528092919081815260200182805461099f90611b16565b80156109ea5780601f106109c1576101008083540402835291602001916109ea565b820191905f5260205f20905b8154815290600101906020018083116109cd57829003601f168201915b505050505081526020016001820154815250509050919050565b610a0c611169565b60036005811115610a2057610a1f61147c565b5b60025f9054906101000a900460ff166005811115610a4157610a4061147c565b5b14610a81576040517f08c379a0000000000000000000000000000000000000000000000000000000008152600401610a78906117ab565b60405180910390fd5b600460025f6101000a81548160ff02191690836005811115610aa657610aa561147c565b5b02179055507f0a97a4ee45751e2abf3e4fc8946939630b11b371ea8ae39ccdc3056e98f5cc3f60036004604051610ade929190611de5565b60405180910390a1565b60015481565b610af6611169565b5f6005811115610b0957610b0861147c565b5b60025f9054906101000a900460ff166005811115610b2a57610b2961147c565b5b14610b6a576040517f08c379a0000000000000000000000000000000000000000000000000000000008152600401610b6190611e7c565b60405180910390fd5b600160025f6101000a81548160ff02191690836005811115610b8f57610b8e61147c565b5b0217905550610b9c6112af565b6040518060400160405280600781526020017f47454e4553495300000000000000000000000000000000000000000000000000815250815f0181905250600381908060018154018082558091505060019003905f5260205f2090600202015f909190919091505f820151815f019081610c159190611ce3565b506020820151816001015550507f0a97a4ee45751e2abf3e4fc8946939630b11b371ea8ae39ccdc3056e98f5cc3f5f6001604051610c54929190611de5565b60405180910390a150565b610c67611169565b60016005811115610c7b57610c7a61147c565b5b60025f9054906101000a900460ff166005811115610c9c57610c9b61147c565b5b14610cdc576040517f08c379a0000000000000000000000000000000000000000000000000000000008152600401610cd390611f0a565b60405180910390fd5b6002805f6101000a81548160ff02191690836005811115610d0057610cff61147c565b5b02179055507f0a97a4ee45751e2abf3e4fc8946939630b11b371ea8ae39ccdc3056e98f5cc3f60016002604051610d38929190611de5565b60405180910390a1565b610d4a6112c8565b60045f3373ffffffffffffffffffffffffffffffffffffffff1673ffffffffffffffffffffffffffffffffffffffff1681526020019081526020015f205f015f9054906101000a900460ff16610dd5576040517f08c379a0000000000000000000000000000000000000000000000000000000008152600401610dcc9061171d565b60405180910390fd5b60045f8373ffffffffffffffffffffffffffffffffffffffff1673ffffffffffffffffffffffffffffffffffffffff1681526020019081526020015f206040518060600160405290815f82015f9054906101000a900460ff161515151581526020015f820160019054906101000a900460ff161515151581526020016001820154815250509050919050565b5f600154905090565b610e72611169565b60026005811115610e8657610e8561147c565b5b60025f9054906101000a900460ff166005811115610ea757610ea661147c565b5b14610ee7576040517f08c379a0000000000000000000000000000000000000000000000000000000008152600401610ede90611f98565b60405180910390fd5b600360025f6101000a81548160ff02191690836005811115610f0c57610f0b61147c565b5b02179055507f0a97a4ee45751e2abf3e4fc8946939630b11b371ea8ae39ccdc3056e98f5cc3f60026003604051610f44929190611de5565b60405180910390a1565b610f56611169565b5f73ffffffffffffffffffffffffffffffffffffffff168173ffffffffffffffffffffffffffffffffffffffff1603610fc4576040517f08c379a0000000000000000000000000000000000000000000000000000000008152600401610fbb90612026565b60405180910390fd5b610fcd816111e7565b50565b610fd8611169565b5f6005811115610feb57610fea61147c565b5b60025f9054906101000a900460ff16600581111561100c5761100b61147c565b5b1461104c576040517f08c379a0000000000000000000000000000000000000000000000000000000008152600401611043906120b4565b60405180910390fd5b60045f8273ffffffffffffffffffffffffffffffffffffffff1673ffffffffffffffffffffffffffffffffffffffff1681526020019081526020015f205f015f9054906101000a900460ff16156110d8576040517f08c379a00000000000000000000000000000000000000000000000000000000081526004016110cf9061211c565b60405180910390fd5b600160045f8373ffffffffffffffffffffffffffffffffffffffff1673ffffffffffffffffffffffffffffffffffffffff1681526020019081526020015f205f015f6101000a81548160ff0219169083151502179055507fb6be2187d059cc2a55fe29e0e503b566e1e0f8c8780096e185429350acffd3dd8160405161115e919061143b565b60405180910390a150565b6111716112a8565b73ffffffffffffffffffffffffffffffffffffffff1661118f610861565b73ffffffffffffffffffffffffffffffffffffffff16146111e5576040517f08c379a00000000000000000000000000000000000000000000000000000000081526004016111dc90612184565b60405180910390fd5b565b5f805f9054906101000a900473ffffffffffffffffffffffffffffffffffffffff169050815f806101000a81548173ffffffffffffffffffffffffffffffffffffffff021916908373ffffffffffffffffffffffffffffffffffffffff1602179055508173ffffffffffffffffffffffffffffffffffffffff168173ffffffffffffffffffffffffffffffffffffffff167f8be0079c531659141344cd1fd0a4f28419497f9722a3daafe3b4186f6b6457e060405160405180910390a35050565b5f33905090565b6040518060400160405280606081526020015f81525090565b60405180606001604052805f151581526020015f151581526020015f81525090565b5f80fd5b5f80fd5b5f819050919050565b611304816112f2565b811461130e575f80fd5b50565b5f8135905061131f816112fb565b92915050565b5f6020828403121561133a576113396112ea565b5b5f61134784828501611311565b91505092915050565b5f80fd5b5f80fd5b5f80fd5b5f8083601f84011261137157611370611350565b5b8235905067ffffffffffffffff81111561138e5761138d611354565b5b6020830191508360018202830111156113aa576113a9611358565b5b9250929050565b5f80602083850312156113c7576113c66112ea565b5b5f83013567ffffffffffffffff8111156113e4576113e36112ee565b5b6113f08582860161135c565b92509250509250929050565b5f73ffffffffffffffffffffffffffffffffffffffff82169050919050565b5f611425826113fc565b9050919050565b6114358161141b565b82525050565b5f60208201905061144e5f83018461142c565b92915050565b61145d816112f2565b82525050565b5f6020820190506114765f830184611454565b92915050565b7f4e487b71000000000000000000000000000000000000000000000000000000005f52602160045260245ffd5b600681106114ba576114b961147c565b5b50565b5f8190506114ca826114a9565b919050565b5f6114d9826114bd565b9050919050565b6114e9816114cf565b82525050565b5f6020820190506115025f8301846114e0565b92915050565b5f81519050919050565b5f82825260208201905092915050565b5f5b8381101561153f578082015181840152602081019050611524565b5f8484015250505050565b5f601f19601f8301169050919050565b5f61156482611508565b61156e8185611512565b935061157e818560208601611522565b6115878161154a565b840191505092915050565b61159b816112f2565b82525050565b5f604083015f8301518482035f8601526115bb828261155a565b91505060208301516115d06020860182611592565b508091505092915050565b5f6020820190508181035f8301526115f381846115a1565b905092915050565b6116048161141b565b811461160e575f80fd5b50565b5f8135905061161f816115fb565b92915050565b5f6020828403121561163a576116396112ea565b5b5f61164784828501611611565b91505092915050565b5f8115159050919050565b61166481611650565b82525050565b606082015f82015161167e5f85018261165b565b506020820151611691602085018261165b565b5060408201516116a46040850182611592565b50505050565b5f6060820190506116bd5f83018461166a565b92915050565b5f82825260208201905092915050565b7f596f75277265206e6f74206120766f74657200000000000000000000000000005f82015250565b5f6117076012836116c3565b9150611712826116d3565b602082019050919050565b5f6020820190508181035f830152611734816116fb565b9050919050565b7f566f74696e672073657373696f6e206861736e277420737461727465642079655f8201527f7400000000000000000000000000000000000000000000000000000000000000602082015250565b5f6117956021836116c3565b91506117a08261173b565b604082019050919050565b5f6020820190508181035f8301526117c281611789565b9050919050565b7f596f75206861766520616c726561647920766f746564000000000000000000005f82015250565b5f6117fd6016836116c3565b9150611808826117c9565b602082019050919050565b5f6020820190508181035f83015261182a816117f1565b9050919050565b7f50726f706f73616c206e6f7420666f756e6400000000000000000000000000005f82015250565b5f6118656012836116c3565b915061187082611831565b602082019050919050565b5f6020820190508181035f83015261189281611859565b9050919050565b7f4e487b71000000000000000000000000000000000000000000000000000000005f52603260045260245ffd5b7f4e487b71000000000000000000000000000000000000000000000000000000005f52601160045260245ffd5b5f6118fd826112f2565b91507fffffffffffffffffffffffffffffffffffffffffffffffffffffffffffffffff820361192f5761192e6118c6565b5b600182019050919050565b5f60408201905061194d5f83018561142c565b61195a6020830184611454565b9392505050565b7f50726f706f73616c7320617265206e6f7420616c6c6f776564207965740000005f82015250565b5f611995601d836116c3565b91506119a082611961565b602082019050919050565b5f6020820190508181035f8301526119c281611989565b9050919050565b5f81905092915050565b50565b5f6119e15f836119c9565b91506119ec826119d3565b5f82019050919050565b5f611a00826119d6565b9150819050919050565b828183375f83830152505050565b5f611a2383856119c9565b9350611a30838584611a0a565b82840190509392505050565b5f611a48828486611a18565b91508190509392505050565b7f596f752063616e6e6f742070726f706f7365206e6f7468696e670000000000005f82015250565b5f611a88601a836116c3565b9150611a9382611a54565b602082019050919050565b5f6020820190508181035f830152611ab581611a7c565b9050919050565b7f4e487b71000000000000000000000000000000000000000000000000000000005f52604160045260245ffd5b7f4e487b71000000000000000000000000000000000000000000000000000000005f52602260045260245ffd5b5f6002820490506001821680611b2d57607f821691505b602082108103611b4057611b3f611ae9565b5b50919050565b5f819050815f5260205f209050919050565b5f6020601f8301049050919050565b5f82821b905092915050565b5f60088302611ba27fffffffffffffffffffffffffffffffffffffffffffffffffffffffffffffffff82611b67565b611bac8683611b67565b95508019841693508086168417925050509392505050565b5f819050919050565b5f611be7611be2611bdd846112f2565b611bc4565b6112f2565b9050919050565b5f819050919050565b611c0083611bcd565b611c14611c0c82611bee565b848454611b73565b825550505050565b5f90565b611c28611c1c565b611c33818484611bf7565b505050565b5b81811015611c5657611c4b5f82611c20565b600181019050611c39565b5050565b601f821115611c9b57611c6c81611b46565b611c7584611b58565b81016020851015611c84578190505b611c98611c9085611b58565b830182611c38565b50505b505050565b5f82821c905092915050565b5f611cbb5f1984600802611ca0565b1980831691505092915050565b5f611cd38383611cac565b9150826002028217905092915050565b611cec82611508565b67ffffffffffffffff811115611d0557611d04611abc565b5b611d0f8254611b16565b611d1a828285611c5a565b5f60209050601f831160018114611d4b575f8415611d39578287015190505b611d438582611cc8565b865550611daa565b601f198416611d5986611b46565b5f5b82811015611d8057848901518255600182019150602085019450602081019050611d5b565b86831015611d9d5784890151611d99601f891682611cac565b8355505b6001600288020188555050505b505050505050565b5f611dbc826112f2565b9150611dc7836112f2565b9250828203905081811115611ddf57611dde6118c6565b5b92915050565b5f604082019050611df85f8301856114e0565b611e0560208301846114e0565b9392505050565b7f5265676973746572696e672070726f706f73616c732063616e277420626520735f8201527f746172746564206e6f7700000000000000000000000000000000000000000000602082015250565b5f611e66602a836116c3565b9150611e7182611e0c565b604082019050919050565b5f6020820190508181035f830152611e9381611e5a565b9050919050565b7f5265676973746572696e672070726f706f73616c73206861736e2774207374615f8201527f7274656420796574000000000000000000000000000000000000000000000000602082015250565b5f611ef46028836116c3565b9150611eff82611e9a565b604082019050919050565b5f6020820190508181035f830152611f2181611ee8565b9050919050565b7f5265676973746572696e672070726f706f73616c73207068617365206973206e5f8201527f6f742066696e6973686564000000000000000000000000000000000000000000602082015250565b5f611f82602b836116c3565b9150611f8d82611f28565b604082019050919050565b5f6020820190508181035f830152611faf81611f76565b9050919050565b7f4f776e61626c653a206e6577206f776e657220697320746865207a65726f20615f8201527f6464726573730000000000000000000000000000000000000000000000000000602082015250565b5f6120106026836116c3565b915061201b82611fb6565b604082019050919050565b5f6020820190508181035f83015261203d81612004565b9050919050565b7f566f7465727320726567697374726174696f6e206973206e6f74206f70656e205f8201527f7965740000000000000000000000000000000000000000000000000000000000602082015250565b5f61209e6023836116c3565b91506120a982612044565b604082019050919050565b5f6020820190508181035f8301526120cb81612092565b9050919050565b7f416c7265616479207265676973746572656400000000000000000000000000005f82015250565b5f6121066012836116c3565b9150612111826120d2565b602082019050919050565b5f6020820190508181035f830152612133816120fa565b9050919050565b7f4f776e61626c653a2063616c6c6572206973206e6f7420746865206f776e65725f82015250565b5f61216e6020836116c3565b91506121798261213a565b602082019050919050565b5f6020820190508181035f83015261219b81612162565b905091905056fea2646970667358221220ece8aa687b4477efc7ca5a408cf218558627015170936b436d66a464f0ab2cda64736f6c63430008140033",
  "immutableReferences": {},
  "source": "// SPDX-License-Identifier: MIT\npragma solidity 0.8.20;\nimport \"../node_modules/@openzeppelin/contracts/access/Ownable.sol\";\n\n/// @title Voting contract\n/// @notice This contract allows for a decentralized voting system\n/// @dev This contract inherits from the Ownable contract from OpenZeppelin\ncontract Voting is Ownable {\n    uint public winningProposalID;\n\n    /// @notice The structure for a voter\n    struct Voter {\n        bool isRegistered;\n        bool hasVoted;\n        uint votedProposalId;\n    }\n\n    /// @notice The structure for a proposal\n    struct Proposal {\n        string description;\n        uint voteCount;\n    }\n\n    /// @notice The different stages of the voting process\n    enum WorkflowStatus {\n        RegisteringVoters,\n        ProposalsRegistrationStarted,\n        ProposalsRegistrationEnded,\n        VotingSessionStarted,\n        VotingSessionEnded,\n        VotesTallied\n    }\n\n    /// @notice The current stage of the voting process\n    WorkflowStatus public workflowStatus;\n\n    /// @notice Array of all proposals for the current voting session\n    Proposal[] proposalsArray;\n\n    /// @notice Map of the voter addresses to their voter info\n    mapping(address => Voter) voters;\n\n    /// @notice Event emitted when a new voter is registered\n    event VoterRegistered(address voterAddress);\n\n    /// @notice Event emitted when the stage of the voting process changes\n    event WorkflowStatusChange(\n        WorkflowStatus previousStatus,\n        WorkflowStatus newStatus\n    );\n\n    /// @notice Event emitted when a new proposal is registered\n    event ProposalRegistered(uint proposalId);\n\n    /// @notice Event emitted when a vote is registered\n    event Voted(address voter, uint proposalId);\n\n    /// @dev Modifier to restrict access to only registered voters\n    modifier onlyVoters() {\n        require(voters[msg.sender].isRegistered, \"You're not a voter\");\n        _;\n    }\n\n    /// @notice Gets voter details\n    /// @param _addr The address of the voter\n    /// @return The voter's details\n    function getVoter(\n        address _addr\n    ) external view onlyVoters returns (Voter memory) {\n        return voters[_addr];\n    }\n\n    /// @notice Gets a proposal\n    /// @param _id The ID of the proposal\n    /// @return The proposal's details\n    function getOneProposal(\n        uint _id\n    ) external view onlyVoters returns (Proposal memory) {\n        return proposalsArray[_id];\n    }\n\n    /// @notice Gets all proposals\n    /// @return Display the proposals\n    function getProposalsCount() public view returns (uint) {\n        return proposalsArray.length;\n    }\n\n    /// @notice Registers a voter\n    /// @param _addr The address of the voter\n    function addVoter(address _addr) external onlyOwner {\n        require(\n            workflowStatus == WorkflowStatus.RegisteringVoters,\n            \"Voters registration is not open yet\"\n        );\n        require(!voters[_addr].isRegistered, \"Already registered\");\n        voters[_addr].isRegistered = true;\n        emit VoterRegistered(_addr);\n    }\n\n    /// @notice Registers a proposal\n    /// @param _desc The description of the proposal\n    function addProposal(string calldata _desc) external onlyVoters {\n        require(\n            workflowStatus == WorkflowStatus.ProposalsRegistrationStarted,\n            \"Proposals are not allowed yet\"\n        );\n        require(\n            keccak256(abi.encodePacked(_desc)) !=\n                keccak256(abi.encodePacked(\"\")),\n            \"You cannot propose nothing\"\n        );\n\n        Proposal memory proposal;\n        proposal.description = _desc;\n        proposalsArray.push(proposal);\n\n        emit ProposalRegistered(proposalsArray.length - 1);\n    }\n\n    /// @notice Lets a voter vote for a proposal and check if the proposal is now winning\n    /// @param _id The ID of the proposal\n    function setVote(uint _id) external onlyVoters {\n        require(\n            workflowStatus == WorkflowStatus.VotingSessionStarted,\n            \"Voting session hasn't started yet\"\n        );\n        require(!voters[msg.sender].hasVoted, \"You have already voted\");\n        require(_id < proposalsArray.length, \"Proposal not found\");\n\n        voters[msg.sender].votedProposalId = _id;\n        voters[msg.sender].hasVoted = true;\n        proposalsArray[_id].voteCount++;\n\n        // Check if this proposal is now winning\n        if (\n            proposalsArray[_id].voteCount >\n            proposalsArray[winningProposalID].voteCount\n        ) {\n            winningProposalID = _id;\n        }\n\n        emit Voted(msg.sender, _id);\n    }\n\n    function getWinningProposalId() public view returns (uint) {\n        return winningProposalID;\n    }\n\n    /// @notice Changes the current workflow status to allow proposal registration\n    function startProposalsRegistering() external onlyOwner {\n        require(\n            workflowStatus == WorkflowStatus.RegisteringVoters,\n            \"Registering proposals can't be started now\"\n        );\n        workflowStatus = WorkflowStatus.ProposalsRegistrationStarted;\n\n        Proposal memory proposal;\n        proposal.description = \"GENESIS\";\n        proposalsArray.push(proposal);\n\n        emit WorkflowStatusChange(\n            WorkflowStatus.RegisteringVoters,\n            WorkflowStatus.ProposalsRegistrationStarted\n        );\n    }\n\n    /// @notice Ends the current proposal registration phase\n    function endProposalsRegistering() external onlyOwner {\n        require(\n            workflowStatus == WorkflowStatus.ProposalsRegistrationStarted,\n            \"Registering proposals hasn't started yet\"\n        );\n        workflowStatus = WorkflowStatus.ProposalsRegistrationEnded;\n        emit WorkflowStatusChange(\n            WorkflowStatus.ProposalsRegistrationStarted,\n            WorkflowStatus.ProposalsRegistrationEnded\n        );\n    }\n\n    /// @notice Starts the voting session\n    function startVotingSession() external onlyOwner {\n        require(\n            workflowStatus == WorkflowStatus.ProposalsRegistrationEnded,\n            \"Registering proposals phase is not finished\"\n        );\n        workflowStatus = WorkflowStatus.VotingSessionStarted;\n        emit WorkflowStatusChange(\n            WorkflowStatus.ProposalsRegistrationEnded,\n            WorkflowStatus.VotingSessionStarted\n        );\n    }\n\n    /// @notice Ends the voting session\n    function endVotingSession() external onlyOwner {\n        require(\n            workflowStatus == WorkflowStatus.VotingSessionStarted,\n            \"Voting session hasn't started yet\"\n        );\n        workflowStatus = WorkflowStatus.VotingSessionEnded;\n        emit WorkflowStatusChange(\n            WorkflowStatus.VotingSessionStarted,\n            WorkflowStatus.VotingSessionEnded\n        );\n    }\n}\n",
  "sourcePath": "/home/thomas/Alyra/Solidity-Alyra-projects/Developpeur-Ethereum-Template/6. Dapp/truffle/contracts/Voting.sol",
  "compiler": {
    "name": "solc",
    "version": "0.8.20+commit.a1b79de6.Emscripten.clang"
  },
  "schemaVersion": "3.4.14",
  "updatedAt": "2023-07-03T15:36:12.760Z",
  "networkType": "ethereum",
  "devdoc": {
    "details": "This contract inherits from the Ownable contract from OpenZeppelin",
    "kind": "dev",
    "methods": {
      "addProposal(string)": {
        "params": {
          "_desc": "The description of the proposal"
        }
      },
      "addVoter(address)": {
        "params": {
          "_addr": "The address of the voter"
        }
      },
      "getOneProposal(uint256)": {
        "params": {
          "_id": "The ID of the proposal"
        },
        "returns": {
          "_0": "The proposal's details"
        }
      },
      "getProposalsCount()": {
        "returns": {
          "_0": "Display the proposals"
        }
      },
      "getVoter(address)": {
        "params": {
          "_addr": "The address of the voter"
        },
        "returns": {
          "_0": "The voter's details"
        }
      },
      "owner()": {
        "details": "Returns the address of the current owner."
      },
      "renounceOwnership()": {
        "details": "Leaves the contract without owner. It will not be possible to call `onlyOwner` functions. Can only be called by the current owner. NOTE: Renouncing ownership will leave the contract without an owner, thereby disabling any functionality that is only available to the owner."
      },
      "setVote(uint256)": {
        "params": {
          "_id": "The ID of the proposal"
        }
      },
      "transferOwnership(address)": {
        "details": "Transfers ownership of the contract to a new account (`newOwner`). Can only be called by the current owner."
      }
    },
    "title": "Voting contract",
    "version": 1
  },
  "userdoc": {
    "events": {
      "ProposalRegistered(uint256)": {
        "notice": "Event emitted when a new proposal is registered"
      },
      "Voted(address,uint256)": {
        "notice": "Event emitted when a vote is registered"
      },
      "VoterRegistered(address)": {
        "notice": "Event emitted when a new voter is registered"
      },
      "WorkflowStatusChange(uint8,uint8)": {
        "notice": "Event emitted when the stage of the voting process changes"
      }
    },
    "kind": "user",
    "methods": {
      "addProposal(string)": {
        "notice": "Registers a proposal"
      },
      "addVoter(address)": {
        "notice": "Registers a voter"
      },
      "endProposalsRegistering()": {
        "notice": "Ends the current proposal registration phase"
      },
      "endVotingSession()": {
        "notice": "Ends the voting session"
      },
      "getOneProposal(uint256)": {
        "notice": "Gets a proposal"
      },
      "getProposalsCount()": {
        "notice": "Gets all proposals"
      },
      "getVoter(address)": {
        "notice": "Gets voter details"
      },
      "setVote(uint256)": {
        "notice": "Lets a voter vote for a proposal and check if the proposal is now winning"
      },
      "startProposalsRegistering()": {
        "notice": "Changes the current workflow status to allow proposal registration"
      },
      "startVotingSession()": {
        "notice": "Starts the voting session"
      },
      "workflowStatus()": {
        "notice": "The current stage of the voting process"
      }
    },
    "notice": "This contract allows for a decentralized voting system",
    "version": 1
  }
}